S00D000066696E616C2E737265630D
S11300000C942A000C9447000C94AF040C94470001
S11300100C9447000C9447000C9447000C94470040
S11300200C9447000C9447000C9447000C945B0517
S11300300C9447000C9447000C9447000C94470020
S11300400C9447000C9447000C9447000C94470010
S11300500C94470011241FBECFE5D8E0DEBFCDBF0E
S113006010E0A0E6B0E0E0E8FBE002C005900D92ED
S1130070A83BB107D9F720E0A8EBB0E001C01D927E
S1130080AC3CB207E1F70E9449030C94BE050C9402
S11300900000672B09F09FC0009711F4D8980895C9
S11300A08130910511F4D99808958230910511F4A5
S11300B0DA9808958330910511F4DB98089584301B
S11300C0910511F4DC9808958530910511F4DD98BB
S11300D008958630910511F4DE98089587309105CE
S11300E011F4DF9808958A30910511F4C0980895A9
S11300F08B30910511F4C19808958C30910511F459
S1130100C29808958D30910511F4C39808958E30E6
S1130110910511F4C49808958F30910511F4C59890
S113012008958031910511F4C6980895813191059F
S113013011F4C79808958431910511F4A89808958D
S11301408531910511F4A99808958631910511F42A
S1130150AA9808958731910511F4AB9808958831D0
S1130160910511F4AC9808958931910511F4AD9875
S113017008958A31910511F4AE9808958B31910553
S113018011F4AF9808958E31910511F49098089563
S11301908F31910511F4919808958032910511F4ED
S11301A0929808958132910511F4939808958232BA
S11301B0910511F4949808958332910511F495985A
S11301C008958432910511F496980895859709F05D
S11301D09FC097980895009711F4D89A0895813094
S11301E0910511F4D99A08958230910511F4DA9A9F
S11301F008958330910511F4DB9A089584309105B4
S113020011F4DC9A08958530910511F4DD9A08956E
S11302108630910511F4DE9A08958730910511F422
S1130220DF9A08958A30910511F4C09A08958B30AD
S1130230910511F4C19A08958C30910511F4C29A74
S113024008958D30910511F4C39A08958E30910567
S113025011F4C49A08958F30910511F4C59A089544
S11302608031910511F4C69A08958131910511F4F4
S1130270C79A08958431910511F4A89A0895853197
S1130280910511F4A99A08958631910511F4AA9A59
S113029008958731910511F4AB9A08958831910539
S11302A011F4AC9A08958931910511F4AD9A089529
S11302B08A31910511F4AE9A08958B31910511F4A8
S11302C0AF9A08958E31910511F4909A08958F3163
S11302D0910511F4919A08958032910511F4929A3E
S11302E008958132910511F4939A0895823291050B
S11302F011F4949A08958332910511F4959A08950E
S11303008432910511F4969A0895859709F4979A81
S11303100895CF93C82F80FF07C061E070E084E0A8
S113032090E00E94490006C060E070E084E090E044
S11303300E944900C1FF07C061E070E085E090E0E1
S11303400E94490006C060E070E085E090E00E94F1
S11303504900C2FF07C061E070E086E090E00E94BF
S1130360490006C060E070E086E090E00E94490029
S1130370C3FF07C061E070E087E090E00E9449009D
S113038006C060E070E087E090E00E944900CF91F1
S11303900895CF93C82F60E070E084E290E00E945B
S11303A049008C2F0E94890161E070E085E290E0B1
S11303B00E9449008FE99FE00197F1F700C0000017
S11303C060E070E085E290E00E9449008FE99FE0E0
S11303D00197F1F700C00000CF91089580E00E94DA
S11303E0C90181E00E94C9010895CF93C62F8130CD
S11303F059F480E8860F82958F700E94C9018C2F72
S11304008F700E94C9010CC0823051F480EC860FB9
S113041082958F700E94C9018C2F8F700E94C90130
S1130420CF91089580E00E9489012FEF89EF90E039
S1130430215080409040E1F700C0000083E00E941A
S1130440C9018FE19EE40197F1F700C0000083E049
S11304500E94C9018FED9BEA0197F1F700C00000EB
S113046083E00E94C90182E00E94C90182E00E94E7
S1130470C90188E00E94C90180E00E94C9018CE0A2
S11304800E94C90180E00E94C90186E00E94C9015E
S11304900895CF93C82F61E070E084E290E00E9459
S11304A049008C2F82958F700E94890161E070E071
S11304B085E290E00E9449008FE99FE00197F1F7FF
S11304C000C0000060E070E085E290E00E94490016
S11304D08FE99FE00197F1F700C000008C2F8F7027
S11304E00E94890161E070E085E290E00E94490089
S11304F08FE99FE00197F1F700C0000060E070E031
S113050085E290E00E9449008FE99FE00197F1F7AE
S113051000C00000CF910895CF93DF93EC01888150
S1130520882331F021960E94490289918111FBCFE1
S1130530DF91CF91089580E02FEF25BB811102C098
S1130540A8980DC0813011F4A99812C0823039F4F2
S1130550AA9893B3907F903F09F47BC00DC0833079
S113056039F4AB9893B3907F903F09F474C004C0FE
S113057093B3907F903F29F023B3207F203FE1F78E
S113058004C08F5F8430C9F666C0843009F455C056
S11305908130D1F028F0823051F18330D9F14FC04D
S11305A0903B71F018F4903769F008C0903D21F049
S11305B0903E09F446C002C088E0089580E00895A2
S11305C089E008958AE00895903B69F018F4903723
S11305D061F007C0903D19F0903EA9F102C085E09A
S11305E0089580E0089586E008958BE00895903B97
S11305F069F018F4903761F007C0903D19F0903E0F
S113060021F102C082E0089580E0089583E0089516
S11306108CE00895903B69F018F4903761F007C0BE
S1130620903D19F0903E99F002C080E3089580E077
S113063008958EE008958DE0089580E0089580E0A7
S1130640089587E0089584E0089581E008958FE097
S113065008958F5F72CF80E0089585B7846085BF69
S11306608BB780688BBF0895889A8B98939A0E9461
S11306702D030E94940508958091BD00811108C046
S1130680909A80E58A95F1F7909881E08093BD0077
S11306900895CF93DF9300D000D0CDB7DEB78FEFAE
S11306A08ABB81BB87BBC39AC59A8FE084BB0E9477
S11306B012020E94340378940E943C038FE59AEE60
S11306C00197F1F700C00000612C712C412C512CD2
S11306D0812C912C5E0194E0A90EB11C212C312CAB
S11306E0FE0131966F017F0119C00E949B02F70140
S11306F0808381110AC08FE39CE90197F1F700C060
S113070000000150110989F70CC09FEFE91AF90A9A
S11307108150833030F4EA14FB0419F004E110E052
S1130720E4CFF60181916F018130B9F5FFEF25EA3D
S11307303EE0F15020403040E1F700C0000063E0AB
S11307400E94F50180E690E00E948C0261E082E064
S11307500E94F5018BE690E00E948C024FEF89E63F
S113076098E1415080409040E1F700C000000E94B1
S1130770EE018BE790E00E948C0260E082E00E9430
S1130780F50188E890E00E948C02622C732C422CC4
S1130790532C88248394912CDDC0823009F065C0E9
S11307A0E1E08E16910409F0D5C06114710409F0DA
S11307B0D1C067E00E94F5018FE890E00E948C02AE
S11307C0FFEF23EC39E0F15020403040E1F700C066
S11307D00000959A939A4FEF83E294EF4150804042
S11307E09040E1F700C000009398EFEFF1EE24E0B1
S11307F0E150F0402040E1F700C00000949A3FEF40
S113080043E284EF315040408040E1F700C00000F3
S1130810949895989FEFEBE7F2E99150E040F0400F
S1130820E1F700C00000C09AC198C398C5982FEFA3
S113083037EA41E6215030404040E1F700C0000073
S1130840C39AC59A8FEF95E3EEE6F1E081509040AC
S1130850E040F040D9F700C00000C098C19844249B
S11308604394512C822C932C75C0833009F072C0B0
S113087021E08216910409F06DC04114510409F07D
S113088069C067E082E00E94F50187E990E00E9478
S11308908C023FEF43EC89E0315040408040E1F767
S11308A000C00000959A82E090E0939AEFEFF3E2A3
S11308B024EFE150F0402040E1F700C0000093989D
S11308C03FEF41EEE4E031504040E040E1F700C04A
S11308D00000949AFFEF23E234EFF15020403040BF
S11308E0E1F700C0000094984FEFE1EEF4E04150CE
S11308F0E040F040E1F700C000000197B1F69598A0
S11309002FEF3BE742E9215030404040E1F700C07F
S11309100000C09AC198C398C5988FEF97EAE1E6A2
S113092081509040E040E1F700C00000C39AC59AAE
S1130930FFEF25E33EE641E0F150204030404040E7
S1130940D9F700C00000C098C19866246394712C44
S1130950822C932CCA14DB0409F0E3CEC1CE1F927F
S11309600F920FB60F9211242F933F934F935F93DF
S11309706F937F938F939F93AF93BF93EF93FF9363
S11309808091BD00813009F085C08091BC00811147
S11309900DC012BE81E08093BC001092B80010928A
S11309A0B9001092BA001092BB0074C022B78091B3
S11309B0B8009091B900A091BA00B091BB00BA2FD1
S11309C0A92F982F8827BC01CD01620F711D811DAD
S11309D0911D22ED31E040E050E00E949C052093FF
S11309E0BE003093BF004093C0005093C10060E04C
S11309F081E00E94F5010E94EE018091BE00909179
S1130A00BF00A091C000B091C1004F97A105B105EE
S1130A10E0F061E081E00E94F5018FE990E00E943E
S1130A208C0266E082E00E94F5018FEA90E00E9469
S1130A308C022FEF89E698E1215080409040E1F745
S1130A4000C000000E94EE011BC061E081E00E9432
S1130A50F50180EA90E00E948C0266E082E00E9448
S1130A60F50183EB90E00E948C022FEF89E698E178
S1130A70215080409040E1F700C000000E94EE0148
S1130A801092B8001092B9001092BA001092BB00F4
S1130A901092BC00FF91EF91BF91AF919F918F9104
S1130AA07F916F915F914F913F912F910F900FBE66
S1130AB00F901F9018951F920F920FB60F9211244A
S1130AC02F938F939F93AF93BF938091B80090918E
S1130AD0B900A091BA00B091BB000196A11DB11D4F
S1130AE08093B8009093B900A093BA00B093BB0070
S1130AF08B3D9240A105B10568F012BE1092BD0075
S1130B001092BC001092B8001092B9001092BA0072
S1130B101092BB00BF91AF919F918F912F910F9035
S1130B200FBE0F901F90189513BE81E083BF12BEB5
S1130B3089B7816089BF0895A1E21A2EAA1BBB1B45
S1130B40FD010DC0AA1FBB1FEE1FFF1FA217B30795
S1130B50E407F50720F0A21BB30BE40BF50B661FAB
S1130B60771F881F991F1A9469F76095709580956F
S1130B7090959B01AC01BD01CF010895F894FFCF7E
S1130B8041637469766174696E6700466F6C646969
S1130B906E672050726F6365737300496E7075746D
S1130BA02020436C6F746800547970653A200054B7
S1130BB02D53686972740054726F757365720020E6
S1130BC05761746572204C6576656C206973004CBE
S10B0BD06F7700476F6F6400AA
S9030000FC
